{
  "_format": "hh-sol-artifact-1",
  "contractName": "VideoPlatform",
  "sourceName": "contracts/Vidverse.sol",
  "abi": [
    {
      "inputs": [],
      "stateMutability": "nonpayable",
      "type": "constructor"
    },
    {
      "anonymous": false,
      "inputs": [
        {
          "indexed": false,
          "internalType": "uint256",
          "name": "id",
          "type": "uint256"
        },
        {
          "indexed": false,
          "internalType": "address",
          "name": "owner",
          "type": "address"
        },
        {
          "indexed": false,
          "internalType": "string",
          "name": "title",
          "type": "string"
        },
        {
          "indexed": false,
          "internalType": "string",
          "name": "description",
          "type": "string"
        },
        {
          "indexed": false,
          "internalType": "string",
          "name": "ipfsHash",
          "type": "string"
        }
      ],
      "name": "VideoUploaded",
      "type": "event"
    },
    {
      "inputs": [],
      "name": "getAllVideos",
      "outputs": [
        {
          "components": [
            {
              "internalType": "uint256",
              "name": "id",
              "type": "uint256"
            },
            {
              "internalType": "address",
              "name": "owner",
              "type": "address"
            },
            {
              "internalType": "string",
              "name": "title",
              "type": "string"
            },
            {
              "internalType": "string",
              "name": "description",
              "type": "string"
            },
            {
              "internalType": "string",
              "name": "ipfsHash",
              "type": "string"
            },
            {
              "internalType": "uint256",
              "name": "tipAmount",
              "type": "uint256"
            }
          ],
          "internalType": "struct VideoPlatform.Video[]",
          "name": "",
          "type": "tuple[]"
        }
      ],
      "stateMutability": "view",
      "type": "function"
    },
    {
      "inputs": [
        {
          "internalType": "address",
          "name": "addr",
          "type": "address"
        }
      ],
      "name": "getBalance",
      "outputs": [
        {
          "internalType": "uint256",
          "name": "",
          "type": "uint256"
        }
      ],
      "stateMutability": "view",
      "type": "function"
    },
    {
      "inputs": [],
      "name": "myToken",
      "outputs": [
        {
          "internalType": "contract ERC20",
          "name": "",
          "type": "address"
        }
      ],
      "stateMutability": "view",
      "type": "function"
    },
    {
      "inputs": [
        {
          "internalType": "uint256",
          "name": "_videoId",
          "type": "uint256"
        },
        {
          "internalType": "uint256",
          "name": "_amount",
          "type": "uint256"
        }
      ],
      "name": "tipVideoOwner",
      "outputs": [],
      "stateMutability": "payable",
      "type": "function"
    },
    {
      "inputs": [
        {
          "internalType": "string",
          "name": "_title",
          "type": "string"
        },
        {
          "internalType": "string",
          "name": "_description",
          "type": "string"
        },
        {
          "internalType": "string",
          "name": "_ipfsHash",
          "type": "string"
        }
      ],
      "name": "uploadVideo",
      "outputs": [],
      "stateMutability": "nonpayable",
      "type": "function"
    },
    {
      "inputs": [
        {
          "internalType": "uint256",
          "name": "",
          "type": "uint256"
        }
      ],
      "name": "videos",
      "outputs": [
        {
          "internalType": "uint256",
          "name": "id",
          "type": "uint256"
        },
        {
          "internalType": "address",
          "name": "owner",
          "type": "address"
        },
        {
          "internalType": "string",
          "name": "title",
          "type": "string"
        },
        {
          "internalType": "string",
          "name": "description",
          "type": "string"
        },
        {
          "internalType": "string",
          "name": "ipfsHash",
          "type": "string"
        },
        {
          "internalType": "uint256",
          "name": "tipAmount",
          "type": "uint256"
        }
      ],
      "stateMutability": "view",
      "type": "function"
    }
  ],
  "bytecode": "0x608060405234801561001057600080fd5b50600060405161001f90610085565b604051809103906000f08015801561003b573d6000803e3d6000fd5b50905080600160006101000a81548173ffffffffffffffffffffffffffffffffffffffff021916908373ffffffffffffffffffffffffffffffffffffffff16021790555050610093565b6116818062001f6883390190565b611ec580620000a36000396000f3fe6080604052600436106100555760003560e01c80634875e9fd1461005a578063b8fcf93714610083578063c38e3434146100ae578063e08327e6146100d9578063e6821bf5146100f5578063f8b2cb4f14610137575b600080fd5b34801561006657600080fd5b50610081600480360381019061007c9190610f17565b610174565b005b34801561008f57600080fd5b50610098610449565b6040516100a5919061103d565b60405180910390f35b3480156100ba57600080fd5b506100c361046f565b6040516100d0919061126a565b60405180910390f35b6100f360048036038101906100ee91906112b8565b6106ee565b005b34801561010157600080fd5b5061011c600480360381019061011791906112f8565b610b14565b60405161012e9695949392919061138d565b60405180910390f35b34801561014357600080fd5b5061015e6004803603810190610159919061142f565b610d18565b60405161016b919061145c565b60405180910390f35b60005b600080549050811015610249578160405160200161019591906114b3565b60405160208183030381529060405280519060200120600082815481106101bf576101be6114ca565b5b90600052602060002090600602016004016040516020016101e091906115f1565b6040516020818303038152906040528051906020012003610236576040517f08c379a000000000000000000000000000000000000000000000000000000000815260040161022d9061167a565b60405180910390fd5b8080610241906116c9565b915050610177565b5060008080549050905060006040518060c001604052808381526020013373ffffffffffffffffffffffffffffffffffffffff168152602001868152602001858152602001848152602001600081525090806001815401808255809150506001900390600052602060002090600602016000909190919091506000820151816000015560208201518160010160006101000a81548173ffffffffffffffffffffffffffffffffffffffff021916908373ffffffffffffffffffffffffffffffffffffffff1602179055506040820151816002019081610328919061189e565b50606082015181600301908161033e919061189e565b506080820151816004019081610354919061189e565b5060a082015181600501555050600160009054906101000a900473ffffffffffffffffffffffffffffffffffffffff1673ffffffffffffffffffffffffffffffffffffffff1663a9059cbb336103e86040518363ffffffff1660e01b81526004016103c09291906119ab565b6020604051808303816000875af11580156103df573d6000803e3d6000fd5b505050506040513d601f19601f820116820180604052508101906104039190611a0c565b507f21e2cbd789bc9c3e71f61317f6c319f27a2f7953bf693b48c579ae6a3a119456813386868660405161043b959493929190611a39565b60405180910390a150505050565b600160009054906101000a900473ffffffffffffffffffffffffffffffffffffffff1681565b60606000805480602002602001604051908101604052809291908181526020016000905b828210156106e557838290600052602060002090600602016040518060c0016040529081600082015481526020016001820160009054906101000a900473ffffffffffffffffffffffffffffffffffffffff1673ffffffffffffffffffffffffffffffffffffffff1673ffffffffffffffffffffffffffffffffffffffff16815260200160028201805461052690611528565b80601f016020809104026020016040519081016040528092919081815260200182805461055290611528565b801561059f5780601f106105745761010080835404028352916020019161059f565b820191906000526020600020905b81548152906001019060200180831161058257829003601f168201915b505050505081526020016003820180546105b890611528565b80601f01602080910402602001604051908101604052809291908181526020018280546105e490611528565b80156106315780601f1061060657610100808354040283529160200191610631565b820191906000526020600020905b81548152906001019060200180831161061457829003601f168201915b5050505050815260200160048201805461064a90611528565b80601f016020809104026020016040519081016040528092919081815260200182805461067690611528565b80156106c35780601f10610698576101008083540402835291602001916106c3565b820191906000526020600020905b8154815290600101906020018083116106a657829003601f168201915b5050505050815260200160058201548152505081526020019060010190610493565b50505050905090565b6000805490508210610735576040517f08c379a000000000000000000000000000000000000000000000000000000000815260040161072c90611aed565b60405180910390fd5b60008111610778576040517f08c379a000000000000000000000000000000000000000000000000000000000815260040161076f90611b59565b60405180910390fd5b600080838154811061078d5761078c6114ca565b5b90600052602060002090600602019050600073ffffffffffffffffffffffffffffffffffffffff168160010160009054906101000a900473ffffffffffffffffffffffffffffffffffffffff1673ffffffffffffffffffffffffffffffffffffffff1603610830576040517f08c379a000000000000000000000000000000000000000000000000000000000815260040161082790611bc5565b60405180910390fd5b81600160009054906101000a900473ffffffffffffffffffffffffffffffffffffffff1673ffffffffffffffffffffffffffffffffffffffff1663dd62ed3e33306040518363ffffffff1660e01b815260040161088e929190611be5565b602060405180830381865afa1580156108ab573d6000803e3d6000fd5b505050506040513d601f19601f820116820180604052508101906108cf9190611c23565b1015610910576040517f08c379a000000000000000000000000000000000000000000000000000000000815260040161090790611c9c565b60405180910390fd5b600160009054906101000a900473ffffffffffffffffffffffffffffffffffffffff1673ffffffffffffffffffffffffffffffffffffffff166323b872dd3330856040518463ffffffff1660e01b815260040161096f93929190611cbc565b6020604051808303816000875af115801561098e573d6000803e3d6000fd5b505050506040513d601f19601f820116820180604052508101906109b29190611a0c565b6109f1576040517f08c379a00000000000000000000000000000000000000000000000000000000081526004016109e890611d65565b60405180910390fd5b600160009054906101000a900473ffffffffffffffffffffffffffffffffffffffff1673ffffffffffffffffffffffffffffffffffffffff1663a9059cbb8260010160009054906101000a900473ffffffffffffffffffffffffffffffffffffffff16846040518363ffffffff1660e01b8152600401610a72929190611d85565b6020604051808303816000875af1158015610a91573d6000803e3d6000fd5b505050506040513d601f19601f82011682018060405250810190610ab59190611a0c565b610af4576040517f08c379a0000000000000000000000000000000000000000000000000000000008152600401610aeb90611e20565b60405180910390fd5b81816005016000828254610b089190611e40565b92505081905550505050565b60008181548110610b2457600080fd5b90600052602060002090600602016000915090508060000154908060010160009054906101000a900473ffffffffffffffffffffffffffffffffffffffff1690806002018054610b7390611528565b80601f0160208091040260200160405190810160405280929190818152602001828054610b9f90611528565b8015610bec5780601f10610bc157610100808354040283529160200191610bec565b820191906000526020600020905b815481529060010190602001808311610bcf57829003601f168201915b505050505090806003018054610c0190611528565b80601f0160208091040260200160405190810160405280929190818152602001828054610c2d90611528565b8015610c7a5780601f10610c4f57610100808354040283529160200191610c7a565b820191906000526020600020905b815481529060010190602001808311610c5d57829003601f168201915b505050505090806004018054610c8f90611528565b80601f0160208091040260200160405190810160405280929190818152602001828054610cbb90611528565b8015610d085780601f10610cdd57610100808354040283529160200191610d08565b820191906000526020600020905b815481529060010190602001808311610ceb57829003601f168201915b5050505050908060050154905086565b6000600160009054906101000a900473ffffffffffffffffffffffffffffffffffffffff1673ffffffffffffffffffffffffffffffffffffffff166370a08231836040518263ffffffff1660e01b8152600401610d759190611e74565b602060405180830381865afa158015610d92573d6000803e3d6000fd5b505050506040513d601f19601f82011682018060405250810190610db69190611c23565b9050919050565b6000604051905090565b600080fd5b600080fd5b600080fd5b600080fd5b6000601f19601f8301169050919050565b7f4e487b7100000000000000000000000000000000000000000000000000000000600052604160045260246000fd5b610e2482610ddb565b810181811067ffffffffffffffff82111715610e4357610e42610dec565b5b80604052505050565b6000610e56610dbd565b9050610e628282610e1b565b919050565b600067ffffffffffffffff821115610e8257610e81610dec565b5b610e8b82610ddb565b9050602081019050919050565b82818337600083830152505050565b6000610eba610eb584610e67565b610e4c565b905082815260208101848484011115610ed657610ed5610dd6565b5b610ee1848285610e98565b509392505050565b600082601f830112610efe57610efd610dd1565b5b8135610f0e848260208601610ea7565b91505092915050565b600080600060608486031215610f3057610f2f610dc7565b5b600084013567ffffffffffffffff811115610f4e57610f4d610dcc565b5b610f5a86828701610ee9565b935050602084013567ffffffffffffffff811115610f7b57610f7a610dcc565b5b610f8786828701610ee9565b925050604084013567ffffffffffffffff811115610fa857610fa7610dcc565b5b610fb486828701610ee9565b9150509250925092565b600073ffffffffffffffffffffffffffffffffffffffff82169050919050565b6000819050919050565b6000611003610ffe610ff984610fbe565b610fde565b610fbe565b9050919050565b600061101582610fe8565b9050919050565b60006110278261100a565b9050919050565b6110378161101c565b82525050565b6000602082019050611052600083018461102e565b92915050565b600081519050919050565b600082825260208201905092915050565b6000819050602082019050919050565b6000819050919050565b61109781611084565b82525050565b60006110a882610fbe565b9050919050565b6110b88161109d565b82525050565b600081519050919050565b600082825260208201905092915050565b60005b838110156110f85780820151818401526020810190506110dd565b60008484015250505050565b600061110f826110be565b61111981856110c9565b93506111298185602086016110da565b61113281610ddb565b840191505092915050565b600060c083016000830151611155600086018261108e565b50602083015161116860208601826110af565b50604083015184820360408601526111808282611104565b9150506060830151848203606086015261119a8282611104565b915050608083015184820360808601526111b48282611104565b91505060a08301516111c960a086018261108e565b508091505092915050565b60006111e0838361113d565b905092915050565b6000602082019050919050565b600061120082611058565b61120a8185611063565b93508360208202850161121c85611074565b8060005b85811015611258578484038952815161123985826111d4565b9450611244836111e8565b925060208a01995050600181019050611220565b50829750879550505050505092915050565b6000602082019050818103600083015261128481846111f5565b905092915050565b61129581611084565b81146112a057600080fd5b50565b6000813590506112b28161128c565b92915050565b600080604083850312156112cf576112ce610dc7565b5b60006112dd858286016112a3565b92505060206112ee858286016112a3565b9150509250929050565b60006020828403121561130e5761130d610dc7565b5b600061131c848285016112a3565b91505092915050565b61132e81611084565b82525050565b61133d8161109d565b82525050565b600082825260208201905092915050565b600061135f826110be565b6113698185611343565b93506113798185602086016110da565b61138281610ddb565b840191505092915050565b600060c0820190506113a26000830189611325565b6113af6020830188611334565b81810360408301526113c18187611354565b905081810360608301526113d58186611354565b905081810360808301526113e98185611354565b90506113f860a0830184611325565b979650505050505050565b61140c8161109d565b811461141757600080fd5b50565b60008135905061142981611403565b92915050565b60006020828403121561144557611444610dc7565b5b60006114538482850161141a565b91505092915050565b60006020820190506114716000830184611325565b92915050565b600081905092915050565b600061148d826110be565b6114978185611477565b93506114a78185602086016110da565b80840191505092915050565b60006114bf8284611482565b915081905092915050565b7f4e487b7100000000000000000000000000000000000000000000000000000000600052603260045260246000fd5b7f4e487b7100000000000000000000000000000000000000000000000000000000600052602260045260246000fd5b6000600282049050600182168061154057607f821691505b602082108103611553576115526114f9565b5b50919050565b60008190508160005260206000209050919050565b6000815461157b81611528565b6115858186611477565b945060018216600081146115a057600181146115b5576115e8565b60ff19831686528115158202860193506115e8565b6115be85611559565b60005b838110156115e0578154818901526001820191506020810190506115c1565b838801955050505b50505092915050565b60006115fd828461156e565b915081905092915050565b7f566964656f2077697468207468652073616d652049504653206861736820616c60008201527f7265616479206578697374730000000000000000000000000000000000000000602082015250565b6000611664602c83611343565b915061166f82611608565b604082019050919050565b6000602082019050818103600083015261169381611657565b9050919050565b7f4e487b7100000000000000000000000000000000000000000000000000000000600052601160045260246000fd5b60006116d482611084565b91507fffffffffffffffffffffffffffffffffffffffffffffffffffffffffffffffff82036117065761170561169a565b5b600182019050919050565b60006020601f8301049050919050565b600082821b905092915050565b60006008830261175e7fffffffffffffffffffffffffffffffffffffffffffffffffffffffffffffffff82611721565b6117688683611721565b95508019841693508086168417925050509392505050565b600061179b61179661179184611084565b610fde565b611084565b9050919050565b6000819050919050565b6117b583611780565b6117c96117c1826117a2565b84845461172e565b825550505050565b600090565b6117de6117d1565b6117e98184846117ac565b505050565b5b8181101561180d576118026000826117d6565b6001810190506117ef565b5050565b601f8211156118525761182381611559565b61182c84611711565b8101602085101561183b578190505b61184f61184785611711565b8301826117ee565b50505b505050565b600082821c905092915050565b600061187560001984600802611857565b1980831691505092915050565b600061188e8383611864565b9150826002028217905092915050565b6118a7826110be565b67ffffffffffffffff8111156118c0576118bf610dec565b5b6118ca8254611528565b6118d5828285611811565b600060209050601f83116001811461190857600084156118f6578287015190505b6119008582611882565b865550611968565b601f19841661191686611559565b60005b8281101561193e57848901518255600182019150602085019450602081019050611919565b8683101561195b5784890151611957601f891682611864565b8355505b6001600288020188555050505b505050505050565b6000819050919050565b600061199561199061198b84611970565b610fde565b611084565b9050919050565b6119a58161197a565b82525050565b60006040820190506119c06000830185611334565b6119cd602083018461199c565b9392505050565b60008115159050919050565b6119e9816119d4565b81146119f457600080fd5b50565b600081519050611a06816119e0565b92915050565b600060208284031215611a2257611a21610dc7565b5b6000611a30848285016119f7565b91505092915050565b600060a082019050611a4e6000830188611325565b611a5b6020830187611334565b8181036040830152611a6d8186611354565b90508181036060830152611a818185611354565b90508181036080830152611a958184611354565b90509695505050505050565b7f496e76616c696420766964656f20494400000000000000000000000000000000600082015250565b6000611ad7601083611343565b9150611ae282611aa1565b602082019050919050565b60006020820190508181036000830152611b0681611aca565b9050919050565b7f416d6f756e74206d7573742062652067726561746572207468616e2030000000600082015250565b6000611b43601d83611343565b9150611b4e82611b0d565b602082019050919050565b60006020820190508181036000830152611b7281611b36565b9050919050565b7f566964656f206e6f7420666f756e640000000000000000000000000000000000600082015250565b6000611baf600f83611343565b9150611bba82611b79565b602082019050919050565b60006020820190508181036000830152611bde81611ba2565b9050919050565b6000604082019050611bfa6000830185611334565b611c076020830184611334565b9392505050565b600081519050611c1d8161128c565b92915050565b600060208284031215611c3957611c38610dc7565b5b6000611c4784828501611c0e565b91505092915050565b7f496e73756666696369656e7420616c6c6f77616e636500000000000000000000600082015250565b6000611c86601683611343565b9150611c9182611c50565b602082019050919050565b60006020820190508181036000830152611cb581611c79565b9050919050565b6000606082019050611cd16000830186611334565b611cde6020830185611334565b611ceb6040830184611325565b949350505050565b7f4661696c20746f207472616e7366657220746f6b656e20696e2061646472657360008201527f7300000000000000000000000000000000000000000000000000000000000000602082015250565b6000611d4f602183611343565b9150611d5a82611cf3565b604082019050919050565b60006020820190508181036000830152611d7e81611d42565b9050919050565b6000604082019050611d9a6000830185611334565b611da76020830184611325565b9392505050565b7f4661696c20746f207472616e7366657220746f6b656e20746f20766964656f7360008201527f206f776e65720000000000000000000000000000000000000000000000000000602082015250565b6000611e0a602683611343565b9150611e1582611dae565b604082019050919050565b60006020820190508181036000830152611e3981611dfd565b9050919050565b6000611e4b82611084565b9150611e5683611084565b9250828201905080821115611e6e57611e6d61169a565b5b92915050565b6000602082019050611e896000830184611334565b9291505056fea2646970667358221220f3374152c832bf9c47c0cfdd1b7542f2c065b4f67163e39a2e3e044c9d46bb5164736f6c6343000814003360806040523480156200001157600080fd5b506040518060400160405280600881526020017f566964546f6b656e0000000000000000000000000000000000000000000000008152506040518060400160405280600381526020017f4e5654000000000000000000000000000000000000000000000000000000000081525081600390816200008f9190620005fe565b508060049081620000a19190620005fe565b505050620000c1336a084595161401484a000000620000c760201b60201c565b6200081c565b600073ffffffffffffffffffffffffffffffffffffffff168273ffffffffffffffffffffffffffffffffffffffff16036200013c5760006040517fec442f050000000000000000000000000000000000000000000000000000000081526004016200013391906200072a565b60405180910390fd5b62000150600083836200015460201b60201c565b5050565b600073ffffffffffffffffffffffffffffffffffffffff168373ffffffffffffffffffffffffffffffffffffffff1603620001aa5780600260008282546200019d919062000776565b9250508190555062000280565b60008060008573ffffffffffffffffffffffffffffffffffffffff1673ffffffffffffffffffffffffffffffffffffffff1681526020019081526020016000205490508181101562000239578381836040517fe450d38c0000000000000000000000000000000000000000000000000000000081526004016200023093929190620007c2565b60405180910390fd5b8181036000808673ffffffffffffffffffffffffffffffffffffffff1673ffffffffffffffffffffffffffffffffffffffff16815260200190815260200160002081905550505b600073ffffffffffffffffffffffffffffffffffffffff168273ffffffffffffffffffffffffffffffffffffffff1603620002cb578060026000828254039250508190555062000318565b806000808473ffffffffffffffffffffffffffffffffffffffff1673ffffffffffffffffffffffffffffffffffffffff168152602001908152602001600020600082825401925050819055505b8173ffffffffffffffffffffffffffffffffffffffff168373ffffffffffffffffffffffffffffffffffffffff167fddf252ad1be2c89b69c2b068fc378daa952ba7f163c4a11628f55a4df523b3ef83604051620003779190620007ff565b60405180910390a3505050565b600081519050919050565b7f4e487b7100000000000000000000000000000000000000000000000000000000600052604160045260246000fd5b7f4e487b7100000000000000000000000000000000000000000000000000000000600052602260045260246000fd5b600060028204905060018216806200040657607f821691505b6020821081036200041c576200041b620003be565b5b50919050565b60008190508160005260206000209050919050565b60006020601f8301049050919050565b600082821b905092915050565b600060088302620004867fffffffffffffffffffffffffffffffffffffffffffffffffffffffffffffffff8262000447565b62000492868362000447565b95508019841693508086168417925050509392505050565b6000819050919050565b6000819050919050565b6000620004df620004d9620004d384620004aa565b620004b4565b620004aa565b9050919050565b6000819050919050565b620004fb83620004be565b620005136200050a82620004e6565b84845462000454565b825550505050565b600090565b6200052a6200051b565b62000537818484620004f0565b505050565b5b818110156200055f576200055360008262000520565b6001810190506200053d565b5050565b601f821115620005ae57620005788162000422565b620005838462000437565b8101602085101562000593578190505b620005ab620005a28562000437565b8301826200053c565b50505b505050565b600082821c905092915050565b6000620005d360001984600802620005b3565b1980831691505092915050565b6000620005ee8383620005c0565b9150826002028217905092915050565b620006098262000384565b67ffffffffffffffff8111156200062557620006246200038f565b5b620006318254620003ed565b6200063e82828562000563565b600060209050601f83116001811462000676576000841562000661578287015190505b6200066d8582620005e0565b865550620006dd565b601f198416620006868662000422565b60005b82811015620006b05784890151825560018201915060208501945060208101905062000689565b86831015620006d05784890151620006cc601f891682620005c0565b8355505b6001600288020188555050505b505050505050565b600073ffffffffffffffffffffffffffffffffffffffff82169050919050565b60006200071282620006e5565b9050919050565b620007248162000705565b82525050565b600060208201905062000741600083018462000719565b92915050565b7f4e487b7100000000000000000000000000000000000000000000000000000000600052601160045260246000fd5b60006200078382620004aa565b91506200079083620004aa565b9250828201905080821115620007ab57620007aa62000747565b5b92915050565b620007bc81620004aa565b82525050565b6000606082019050620007d9600083018662000719565b620007e86020830185620007b1565b620007f76040830184620007b1565b949350505050565b6000602082019050620008166000830184620007b1565b92915050565b610e55806200082c6000396000f3fe608060405234801561001057600080fd5b50600436106100935760003560e01c8063313ce56711610066578063313ce5671461013457806370a082311461015257806395d89b4114610182578063a9059cbb146101a0578063dd62ed3e146101d057610093565b806306fdde0314610098578063095ea7b3146100b657806318160ddd146100e657806323b872dd14610104575b600080fd5b6100a0610200565b6040516100ad9190610aa9565b60405180910390f35b6100d060048036038101906100cb9190610b64565b610292565b6040516100dd9190610bbf565b60405180910390f35b6100ee6102b5565b6040516100fb9190610be9565b60405180910390f35b61011e60048036038101906101199190610c04565b6102bf565b60405161012b9190610bbf565b60405180910390f35b61013c6102ee565b6040516101499190610c73565b60405180910390f35b61016c60048036038101906101679190610c8e565b6102f7565b6040516101799190610be9565b60405180910390f35b61018a61033f565b6040516101979190610aa9565b60405180910390f35b6101ba60048036038101906101b59190610b64565b6103d1565b6040516101c79190610bbf565b60405180910390f35b6101ea60048036038101906101e59190610cbb565b6103f4565b6040516101f79190610be9565b60405180910390f35b60606003805461020f90610d2a565b80601f016020809104026020016040519081016040528092919081815260200182805461023b90610d2a565b80156102885780601f1061025d57610100808354040283529160200191610288565b820191906000526020600020905b81548152906001019060200180831161026b57829003601f168201915b5050505050905090565b60008061029d61047b565b90506102aa818585610483565b600191505092915050565b6000600254905090565b6000806102ca61047b565b90506102d7858285610495565b6102e2858585610529565b60019150509392505050565b60006012905090565b60008060008373ffffffffffffffffffffffffffffffffffffffff1673ffffffffffffffffffffffffffffffffffffffff168152602001908152602001600020549050919050565b60606004805461034e90610d2a565b80601f016020809104026020016040519081016040528092919081815260200182805461037a90610d2a565b80156103c75780601f1061039c576101008083540402835291602001916103c7565b820191906000526020600020905b8154815290600101906020018083116103aa57829003601f168201915b5050505050905090565b6000806103dc61047b565b90506103e9818585610529565b600191505092915050565b6000600160008473ffffffffffffffffffffffffffffffffffffffff1673ffffffffffffffffffffffffffffffffffffffff16815260200190815260200160002060008373ffffffffffffffffffffffffffffffffffffffff1673ffffffffffffffffffffffffffffffffffffffff16815260200190815260200160002054905092915050565b600033905090565b610490838383600161061d565b505050565b60006104a184846103f4565b90507fffffffffffffffffffffffffffffffffffffffffffffffffffffffffffffffff81146105235781811015610513578281836040517ffb8f41b200000000000000000000000000000000000000000000000000000000815260040161050a93929190610d6a565b60405180910390fd5b6105228484848403600061061d565b5b50505050565b600073ffffffffffffffffffffffffffffffffffffffff168373ffffffffffffffffffffffffffffffffffffffff160361059b5760006040517f96c6fd1e0000000000000000000000000000000000000000000000000000000081526004016105929190610da1565b60405180910390fd5b600073ffffffffffffffffffffffffffffffffffffffff168273ffffffffffffffffffffffffffffffffffffffff160361060d5760006040517fec442f050000000000000000000000000000000000000000000000000000000081526004016106049190610da1565b60405180910390fd5b6106188383836107f4565b505050565b600073ffffffffffffffffffffffffffffffffffffffff168473ffffffffffffffffffffffffffffffffffffffff160361068f5760006040517fe602df050000000000000000000000000000000000000000000000000000000081526004016106869190610da1565b60405180910390fd5b600073ffffffffffffffffffffffffffffffffffffffff168373ffffffffffffffffffffffffffffffffffffffff16036107015760006040517f94280d620000000000000000000000000000000000000000000000000000000081526004016106f89190610da1565b60405180910390fd5b81600160008673ffffffffffffffffffffffffffffffffffffffff1673ffffffffffffffffffffffffffffffffffffffff16815260200190815260200160002060008573ffffffffffffffffffffffffffffffffffffffff1673ffffffffffffffffffffffffffffffffffffffff1681526020019081526020016000208190555080156107ee578273ffffffffffffffffffffffffffffffffffffffff168473ffffffffffffffffffffffffffffffffffffffff167f8c5be1e5ebec7d5bd14f71427d1e84f3dd0314c0f7b2291e5b200ac8c7c3b925846040516107e59190610be9565b60405180910390a35b50505050565b600073ffffffffffffffffffffffffffffffffffffffff168373ffffffffffffffffffffffffffffffffffffffff160361084657806002600082825461083a9190610deb565b92505081905550610919565b60008060008573ffffffffffffffffffffffffffffffffffffffff1673ffffffffffffffffffffffffffffffffffffffff168152602001908152602001600020549050818110156108d2578381836040517fe450d38c0000000000000000000000000000000000000000000000000000000081526004016108c993929190610d6a565b60405180910390fd5b8181036000808673ffffffffffffffffffffffffffffffffffffffff1673ffffffffffffffffffffffffffffffffffffffff16815260200190815260200160002081905550505b600073ffffffffffffffffffffffffffffffffffffffff168273ffffffffffffffffffffffffffffffffffffffff160361096257806002600082825403925050819055506109af565b806000808473ffffffffffffffffffffffffffffffffffffffff1673ffffffffffffffffffffffffffffffffffffffff168152602001908152602001600020600082825401925050819055505b8173ffffffffffffffffffffffffffffffffffffffff168373ffffffffffffffffffffffffffffffffffffffff167fddf252ad1be2c89b69c2b068fc378daa952ba7f163c4a11628f55a4df523b3ef83604051610a0c9190610be9565b60405180910390a3505050565b600081519050919050565b600082825260208201905092915050565b60005b83811015610a53578082015181840152602081019050610a38565b60008484015250505050565b6000601f19601f8301169050919050565b6000610a7b82610a19565b610a858185610a24565b9350610a95818560208601610a35565b610a9e81610a5f565b840191505092915050565b60006020820190508181036000830152610ac38184610a70565b905092915050565b600080fd5b600073ffffffffffffffffffffffffffffffffffffffff82169050919050565b6000610afb82610ad0565b9050919050565b610b0b81610af0565b8114610b1657600080fd5b50565b600081359050610b2881610b02565b92915050565b6000819050919050565b610b4181610b2e565b8114610b4c57600080fd5b50565b600081359050610b5e81610b38565b92915050565b60008060408385031215610b7b57610b7a610acb565b5b6000610b8985828601610b19565b9250506020610b9a85828601610b4f565b9150509250929050565b60008115159050919050565b610bb981610ba4565b82525050565b6000602082019050610bd46000830184610bb0565b92915050565b610be381610b2e565b82525050565b6000602082019050610bfe6000830184610bda565b92915050565b600080600060608486031215610c1d57610c1c610acb565b5b6000610c2b86828701610b19565b9350506020610c3c86828701610b19565b9250506040610c4d86828701610b4f565b9150509250925092565b600060ff82169050919050565b610c6d81610c57565b82525050565b6000602082019050610c886000830184610c64565b92915050565b600060208284031215610ca457610ca3610acb565b5b6000610cb284828501610b19565b91505092915050565b60008060408385031215610cd257610cd1610acb565b5b6000610ce085828601610b19565b9250506020610cf185828601610b19565b9150509250929050565b7f4e487b7100000000000000000000000000000000000000000000000000000000600052602260045260246000fd5b60006002820490506001821680610d4257607f821691505b602082108103610d5557610d54610cfb565b5b50919050565b610d6481610af0565b82525050565b6000606082019050610d7f6000830186610d5b565b610d8c6020830185610bda565b610d996040830184610bda565b949350505050565b6000602082019050610db66000830184610d5b565b92915050565b7f4e487b7100000000000000000000000000000000000000000000000000000000600052601160045260246000fd5b6000610df682610b2e565b9150610e0183610b2e565b9250828201905080821115610e1957610e18610dbc565b5b9291505056fea2646970667358221220d68b0b9922016a46afb46eef2bb0281ad44f3cd28cb085a24cad7810a58f816f64736f6c63430008140033",
  "linkReferences": {},
  "deployedLinkReferences": {}
}